:020000040000fa
:080000000002040000000000f2
:020000040000fa
:040008003c050000b3
:020000040000fa
:04000c00c802000026
:020000040000fa
:04001000da02000010
:020000040000fa
:04001400d002000016
:020000040000fa
:04001800e202000000
:020000040000fa
:04001c003c0500009f
:020000040000fa
:040020003c0500009b
:020000040000fa
:040024003c05000097
:020000040000fa
:040028003c05000093
:020000040000fa
:04002c003c0500008f
:020000040000fa
:040030003c0500008b
:020000040000fa
:040034003c05000087
:020000040000fa
:040038003c05000083
:020000040000fa
:04003c003c0500007f
:020000040000fa
:040040003c0500007b
:020000040000fa
:040044003c05000077
:020000040000fa
:040048003c05000073
:020000040000fa
:04004c003c0500006f
:020000040000fa
:040050003c0500006b
:020000040000fa
:040054003c05000067
:020000040000fa
:040058003c05000063
:020000040000fa
:04005c003c0500005f
:020000040000fa
:040060003c0500005b
:020000040000fa
:040064003c05000057
:020000040000fa
:040068003c05000053
:020000040000fa
:04006c00ea020000a4
:020000040000fa
:040070003c0500004b
:020000040000fa
:040074003c05000047
:020000040000fa
:040078003c05000043
:020000040000fa
:04007c003c0500003f
:020000040000fa
:040080003c0500003b
:020000040000fa
:040084003c05000037
:020000040000fa
:040088003c05000033
:020000040000fa
:04008c003c0500002f
:020000040000fa
:040090003c0500002b
:020000040000fa
:040094003c05000027
:020000040000fa
:040098003c05000023
:020000040000fa
:04009c003c0500001f
:020000040000fa
:0400a0003c0500001b
:020000040000fa
:0400a4003c05000017
:020000040000fa
:0400a8003c05000013
:020000040000fa
:0400ac003c0500000f
:020000040000fa
:0400b0003c0500000b
:020000040000fa
:0400b4003c05000007
:020000040000fa
:0400b8003c05000003
:020000040000fa
:0400bc003c050000ff
:020000040000fa
:0400c0003c050000fb
:020000040000fa
:0400c4003c050000f7
:020000040000fa
:0400c8003c050000f3
:020000040000fa
:0400cc003c050000ef
:020000040000fa
:0400d0003c050000eb
:020000040000fa
:0400d4003c050000e7
:020000040000fa
:0400d8003c050000e3
:020000040000fa
:0400dc003c050000df
:020000040000fa
:0400e0003c050000db
:020000040000fa
:0400e4003c050000d7
:020000040000fa
:0400e8003c050000d3
:020000040000fa
:0400ec003c050000cf
:020000040000fa
:0400f0003c050000cb
:020000040000fa
:0400f4003c050000c7
:020000040000fa
:0400f8003c050000c3
:020000040000fa
:0400fc003c050000bf
:020000040000fa
:040100003c050000ba
:020000040000fa
:040104003c050000b6
:020000040000fa
:040108003c050000b2
:020000040000fa
:04010c003c050000ae
:020000040000fa
:040110003c050000aa
:020000040000fa
:040114003c050000a6
:020000040000fa
:040118003c050000a2
:020000040000fa
:04011c003c0500009e
:020000040000fa
:040120003c0500009a
:020000040000fa
:040124003c05000096
:020000040000fa
:040128003c05000092
:020000040000fa
:04012c003c0500008e
:020000040000fa
:040130003c0500008a
:020000040000fa
:040134003c05000086
:020000040000fa
:040138003c05000082
:020000040000fa
:04013c003c0500007e
:020000040000fa
:040140003c0500007a
:020000040000fa
:040144003c05000076
:020000040000fa
:040148003c05000072
:020000040000fa
:04014c003c0500006e
:020000040000fa
:040150003c0500006a
:020000040000fa
:040154003c05000066
:020000040000fa
:040158003c05000062
:020000040000fa
:04015c003c0500005e
:020000040000fa
:040160003c0500005a
:020000040000fa
:040164003c05000056
:020000040000fa
:040168003c05000052
:020000040000fa
:04016c003c0500004e
:020000040000fa
:040170003c0500004a
:020000040000fa
:040174003c05000046
:020000040000fa
:040178003c05000042
:020000040000fa
:04017c003c0500003e
:020000040000fa
:040180003c0500003a
:020000040000fa
:040208003c050000b1
:020000040000fa
:04020c003c050000ad
:020000040000fa
:040210003c050000a9
:020000040000fa
:040214003c050000a5
:020000040000fa
:040218003c050000a1
:020000040000fa
:04021c003c0500009d
:020000040000fa
:040220003c05000099
:020000040000fa
:040224003c05000095
:020000040000fa
:040228003c05000091
:020000040000fa
:04022c003c0500008d
:020000040000fa
:040230003c05000089
:020000040000fa
:040234003c05000085
:020000040000fa
:040238003c05000081
:020000040000fa
:04023c003c0500007d
:020000040000fa
:040240003c05000079
:020000040000fa
:040244003c05000075
:020000040000fa
:040248003c05000071
:020000040000fa
:04024c003c0500006d
:020000040000fa
:040250003c05000069
:020000040000fa
:040254003c05000065
:020000040000fa
:040258003c05000061
:020000040000fa
:04025c003c0500005d
:020000040000fa
:040260003c05000059
:020000040000fa
:040264003c05000055
:020000040000fa
:040268003c05000051
:020000040000fa
:04026c003c0500004d
:020000040000fa
:040270003c05000049
:020000040000fa
:040274003c05000045
:020000040000fa
:040278003c05000041
:020000040000fa
:04027c003c0500003d
:020000040000fa
:040280003c05000039
:020000040000fa
:040284003c05000035
:020000040000fa
:040288003c05000031
:020000040000fa
:04028c003c0500002d
:020000040000fa
:040290003c05000029
:020000040000fa
:040294003c05000025
:020000040000fa
:040298003c05000021
:020000040000fa
:04029c003c0500001d
:020000040000fa
:0402a0003c05000019
:020000040000fa
:0402a4003c05000015
:020000040000fa
:0402a8003c05000011
:020000040000fa
:0402ac003c0500000d
:020000040000fa
:0402b0003c05000009
:020000040000fa
:0402b4003c05000005
:020000040000fa
:0402b8003c05000001
:020000040000fa
:0402bc003c050000fd
:020000040000fa
:0402c0003c050000f9
:020000040000fa
:0402c4003c050000f5
:020000040000fa
:0402c8003c050000f1
:020000040000fa
:0402cc003c050000ed
:020000040000fa
:0402d0003c050000e9
:020000040000fa
:0402d4003c050000e5
:020000040000fa
:0402d8003c050000e1
:020000040000fa
:0402dc003c050000dd
:020000040000fa
:0402e0003c050000d9
:020000040000fa
:0402e4003c050000d5
:020000040000fa
:0402e8003c050000d1
:020000040000fa
:0402ec003c050000cd
:020000040000fa
:0402f0003c050000c9
:020000040000fa
:0402f4003c050000c5
:020000040000fa
:0402f8003c050000c1
:020000040000fa
:0402fc003c050000bd
:020000040000fa
:040300003c050000b8
:020000040000fa
:040304003c050000b4
:020000040000fa
:040308003c050000b0
:020000040000fa
:04030c003c050000ac
:020000040000fa
:040310003c050000a8
:020000040000fa
:040314003c050000a4
:020000040000fa
:040318003c050000a0
:020000040000fa
:04031c003c0500009c
:020000040000fa
:040320003c05000098
:020000040000fa
:040324003c05000094
:020000040000fa
:040328003c05000090
:020000040000fa
:04032c003c0500008c
:020000040000fa
:040330003c05000088
:020000040000fa
:040334003c05000084
:020000040000fa
:040338003c05000080
:020000040000fa
:04033c003c0500007c
:020000040000fa
:040340003c05000078
:020000040000fa
:040344003c05000074
:020000040000fa
:040348003c05000070
:020000040000fa
:04034c003c0500006c
:020000040000fa
:040350003c05000068
:020000040000fa
:040354003c05000064
:020000040000fa
:040358003c05000060
:020000040000fa
:04035c003c0500005c
:020000040000fa
:040360003c05000058
:020000040000fa
:040364003c05000054
:020000040000fa
:040368003c05000050
:020000040000fa
:04036c003c0500004c
:020000040000fa
:040370003c05000048
:020000040000fa
:040374003c05000044
:020000040000fa
:040378003c05000040
:020000040000fa
:04037c003c0500003c
:020000040000fa
:040380003c05000038
:020000040000fa
:100400006f8520000e7f22000e0188000000000092
:10041000000020000000e000020032000001200087
:100420002002880014000700950107000000e0008a
:1004300003003a00a0f22000010020000200370073
:100440000000200001002000810f70000100320038
:1004500014000700000020000000e000020032004d
:100460000000020000000000e80902000000000097
:100470000040da000000fe004440a900c000200057
:100480000000e0000300320000002000a00188000e
:100490004440a800000006008a1f78008b1f7800e7
:1004a0000000060091018800800478000000eb0045
:1004b0001a003700e284440032a0b4009905ba0063
:1004c000e284440032a0b4009906ba00e2844400f9
:1004d00032a0b4000006eb00476fde00fd07b2005b
:1004e000636ce10003003a00ebff07000000eb0043
:1004f0000a003700606ce10004003a00005deb0088
:100500008b05e900fdff3e00040037006168e10053
:10051000010032000086eb000b00070019c7ba008b
:100520001905ba000e04e00003003a000a00e000da
:10053000e0ff3a0000000600fe07b2009e018800be
:100540008a047800f5ff3700395dba008b05e900b1
:100550000c003200295dba008b05e900080032006a
:100560000c00e00003003a00e284440032a0b40032
:10057000f5ff370019ddba008b05e900faff3a00f4
:100580008904e800e184440032a0b40000000600c1
:100590003600f8008020a9000000eb006b06070081
:1005a0003600f8006d0607008040a900100020000a
:1005b000660607003600f8008060a90020002000d1
:1005c000620607003600f8008080a9003000200095
:1005d0005e0607003600f800809fbe00829fbe00c6
:1005e000849fbe00869fbe000000fa008620a900fe
:1005f0004110800000082000008060000000e00042
:100600000800320008e2a9000828ef0070408000ce
:10061000200090008000eb00010878000e28ef0019
:100620000e013700404080008000eb00b200200047
:1006300003002000820f5000838f5800fd003e0011
:10064000006001000b0037003a00370076003700e9
:100650009d003700f4003700c9003700da0037008a
:10066000f1003700dc003700f200370035003700ba
:1006700051003700008020002000900062006000e0
:100680000000e000f4003a0000802000100090001c
:10069000704088000080200010009000104078001a
:1006a0000ae8b700008020001000900010009000c1
:1006b000604088000080200010009000e6004000ac
:1006c0000080200011009800008020009000900021
:1006d00020842000808f500003003a00008020001a
:1006e000c1832000110098000080200020019000ac
:1006f000e1ff2f00810061002100980000802000b0
:10070000900090000080200010007800808f500042
:1007100004003a0000802000a00090000110a0001a
:10072000210098000602a800200020004040880018
:10073000ca0037000622a8002000200040408800a0
:10074000c6003700411080000000280000806000d3
:100750000000e000080032000080200060409000af
:100760008040e800008020006140980040002000a8
:10077000d2040700b9003700804080008000d1001b
:10078000f00f200000806000101088008040800082
:1007900061006000004078000004e00003003200c7
:1007a000b000200040408800ac003700300020003e
:1007b00040408800a9003700411080000000280058
:1007c000008060000000e00008003200008020008f
:1007d000604090008040e800008020006140980068
:1007e00040002000b50407009c0037000622a80046
:1007f000804080004800de00e6006000000f20001e
:100800000100700080408800804080000000a0004f
:100810008040880010c0b30012e8b700200020001c
:10082000404088008d00370012c8bf00e14f5000e3
:100830000a0032006040800010007800804088008c
:100840006040800020009000a04088006040800050
:100850002040900016e8b700010037001268ef0052
:1008600081408000f00f2000808f5000090036008a
:10087000804080004800de00e6006000000f20009d
:100880000100700010108800a00020004040880087
:100890007200370080408000101088008040800087
:1008a00061006000004078000004e00003003200b6
:1008b00050002000404088006800370030002000d1
:1008c000404088006500370041108000000028008b
:1008d000008060000000e00009003200008020007d
:1008e000604090008040e800008020006140980057
:1008f00009e2a900500020007004070057003700eb
:1009000016c8bf008080fb008100e900cf08de0030
:10091000814078000040e90016e8b7000104e000db
:100920001000320060408000660040006040880097
:100930000ac8bf000040e9000ae8b7000ac8bf00c3
:100940000004e00003003a00200020005b040700e0
:10095000420037000622a800200020004040880006
:100960003e003700a0408000904078008180fb006e
:10097000111088000000e800a04088003700370010
:100980004110800000002800008060000000e000ae
:100990000900320000802000604090008040e800a4
:1009a00000802000614098004000200043040700c0
:1009b00009e2a900290037000662a8008000200093
:1009c000404088002500370080002000404088001b
:1009d0000662a80021003700a040800001108000be
:1009e00081407800014878000000e800a0408800bd
:1009f00016c8bf000040e90016e8b70016c8bf00df
:100a00000004e0000400320006a2a90060002000fb
:100a1000404088000200370006a2a8001604070024
:100a20000682a8000d0037002000200023040700e4
:100a30000a00370000802000604090008040e800fd
:100a40000080200061409800600020001b04070027
:100a50000000000001003700000000000080fa00e4
:100a60004f03be004f02be004f01be004f00be004c
:100a70003600f900004006000040da000000fe00e9
:100a80000000050003f0a200889fbe008a9fbe0000
:100a90008c1f7800ca000700d10033006450e100c9
:100aa0004f0032006420e1005200320003826c00eb
:100ab00007003b000905d0000306d000820f540058
:100ac0000c065d0002003900020032008901780046
:100ad000030678008582550004003d000003fd00f8
:100ae0008103fd008502ea008b854200840f7200bd
:100af00002003b0060001000e08018006011b800a8
:100b00000005eb007a28e1000a00390006007800b1
:100b1000c75ddd00f707b200878075002d00370044
:100b2000828171000a017800610560008180d10036
:100b30000080d3008502e900f9ff3b000604400075
:100b40008784480002003b0060041400e0841c001d
:100b50000988a300070032008a8171008281710038
:100b6000610164008904d1000884d3008b05e8008a
:100b7000170037000978a30013003a000b00e000cb
:100b8000130034008b05e9000804440089844c00fc
:100b90000a4474000978a3000d003a000b00e0003d
:100ba000070034008b05e9000804440089844c00e8
:100bb00001003a000b0020000978a300f7ff320083
:100bc0000001eb0002003700828171000a01780009
:100bd000550007000cf0a70001f0a00089003700c5
:100be0006420e10002003a00838f6c00890033002a
:100bf0000801be000200be0082003700889fbe00d0
:100c00008a9fbe008c1f78006d00070074003300bf
:100c100003866c006450e1002e0032006420e10085
:100c2000330032006150e1002f0032006120e1000a
:100c30003100320085855500eb07b0000900200027
:100c400008042000050037000804440089844c0093
:100c50000a0031000603430087834b000001530064
:100c600081815b00f8ff33000203be000800a00092
:100c70000804440089844c00f6ff3900c639dd00c1
:100c80008301730001003200130020008904d100a9
:100c90000884d3000998a300050032000800a700cb
:100ca0000300a0008904d1000884d3008b05e8006c
:100cb0008904d1000884d3000001eb000281d20036
:100cc0001900070001f0a1000cf0a70001f0a0003e
:100cd0004c0037006420e1004e0032000801be00e5
:100ce0000200be00f7ff37006120e100490032003a
:100cf0006000b800f3ff37000000200001f8270073
:100d0000f0ff370014002000ae003700f4ff2f0082
:100d1000ac0037004f89de0082017800c400370044
:100d200004002000a70037008100200061805500ea
:100d30000b003d000b00200061fe2f000100e100d0
:100d40001d00340082817100610164008904d100ba
:100d50000884d3000000e800faff3a007100200088
:100d600061006400030070000200600009003200ae
:100d700061044400e0844c000988a50005003200ad
:100d80008b05e8006808e10002003a008904d10000
:100d90000884d300f20f20000258e10005003d0056
:100da000c75ddd00f907b200898075000800780092
:100db000000006000bf827008b00780000000500fb
:100dc0000004be00d90007000003be000405be00f9
:100dd0000200be00d5000700844f75000000060029
:100de0000200be006450e100050036006420e1000e
:100df000020036000968a30001003a000800be00a6
:100e00000160a0004f0678004f05be004f04be00f1
:100e100000000600f0ff2f00f1ff2700f9ff370068
:100e2000889fbe008a9fbe008c1f7800e4ff0700e9
:100e3000ebff330003866c006450e10024003200b5
:100e40006420e100270032006150e10022003200fe
:100e50006120e100210032008b854200eb07b100e8
:100e60000134b800003ab8000804420089844a00fe
:100e7000013ab8000030b8008880400009014a00fb
:100e80000400330000004000818048000201490056
:100e90008b05e900c909dd00830170000100320003
:100ea00013002000c814de004814dd004709de00ee
:100eb0001200b200c808de00088470009aff070024
:100ec00001f0a1000cf0a70001f0a000cdff370059
:100ed0006120e100cfff32000801be000200be0029
:100ee000f7ff37006150e100fcff3a00c9ff37000f
:100ef000889fbe008a9fbe008c1f78000004be0041
:100f00008a0007000478a30026003a006120e1006f
:100f10002500320009f8a30025003a006420e10012
:100f200021003200f507b1000508a30002003200dd
:100f300000004000818048006044b8000310200099
:100f400002002000000040008180480008054400a5
:100f500089854c000a0541008b8549000a0550002f
:100f60008b855800030033000a00be0002047400a1
:100f7000838474008301d1000281d300830f710048
:100f8000f0ff3a008904d1000884d30060014900d1
:100f900082017800c1adde00fb07b00062ff0700f0
:100fa00098ff37000960a0000800be0095ff3700d9
:100fb00012022000d2408800f0ff2f00f1ff27002e
:100fc00090ff3700889fbe008a9fbe00841f780074
:100fd0007bff07004f00780011003300f0ff2f0067
:100fe000838f6c0006003b00040565000a00a70023
:100ff0000800370009f0a6001000200008003700a4
:10100000820f5400838f5c00030039001000200021
:1010100001003e000000200009f0a7000000ea00e7
:101020004f05be004f04be000000e00000000600b7
:10103000881f7800030478000300e00007003d00eb
:1010400060001000e080180060011900e0811900c4
:1010500002003b0001f02d000300370004000700f0
:1010600008f0a70001f0a0004f047800000006007f
:10107000889fbe008a9fbe0000827000040271003b
:1010800004827100260032000004be000200be008f
:101090006011b8006b092000950220000182cf008a
:1010a0000a0039000541b1000082cf000700390075
:1010b0000541b1000982cf00040039000541b100ab
:1010c0000882cf00010039000541b10005425200fd
:1010d000120032000a003b0082817100610164004d
:1010e0008100d1000080d3008984d3000884d3001c
:1010f0008b05e8000442e800f7ff3a0007003700dc
:101100000804440089844c000000480081804800a5
:101110008b05e9000442e900f9ff3a0002ff0700ed
:101120004f05be004f04be0000000600c70ade00e7
:10113000f107b200f50fb20008003200e1cf420023
:10114000020032000170a00024000500810f700031
:10115000010032000408050044000500810f700002
:1011600002003a00140005008502e900000040007a
:1011700081c04800fcff3b000170a0002400050076
:020000040000fa
:10118000a00a0000051100009c000000029f000062
:08119000000a000000c000008d
:020000040000fa
:101198000800fa0020479800210798006247980045
:1011a80010002000000f78002e4090000080fb0007
:1011b8008e01780000017800ee4090002e0090002b
:1011c8004902070003003700800c200001002000be
:1011d800410307001e007800e10f5000faff3200bb
:1011e8001e0078000000e00002003a000040eb001a
:1011f8000b0037001e007800e40f500002003a0090
:101208000040eb00060037001e007800e20f500097
:1012180002003a0010c0b300010037000040eb00a4
:101228000080fa00000006000600fa002047980037
:101238002107980010002000000f78002e40900031
:101248000080fb008e0178000001780021c0b30007
:101258002e0090003d02070003003700800c20009c
:10126800010020001c0307001e007800e10f500059
:10127800faff32001e0078000000e00002003a0089
:101288000040eb000b0037001e007800e40f500010
:1012980002003a000040eb00060037001e0078000c
:1012a800e20f500002003a0010c0b30001003700fe
:1012b8000040eb000080fa00000006000c00fa0075
:1012c8006047980041079800224f9800334f9800d4
:1012d800ce009000010f780000cbb3004047980083
:1012e800be489000514798000040eb002047980006
:1012f8000040eb00304798000040eb002047980082
:101308002a0037003e409000e34f500002003600ac
:101318000040eb002a0037003e4090000040e80003
:1013280030479800010037000000000064004700c3
:1013380022c0b300800078006e40900094ff070040
:101348000004e000efff32000040eb003047980057
:10135800080037003e409000e34f5000020036007e
:101368000040eb00160037003e4090000040e800c7
:10137800304798009e0078006e409000aaff070052
:101388000004e000f3ff32000040eb003047980013
:101398005e4090000040e800504798001e0fe800ab
:1013a8002e4090000040e80020479800ae40900092
:1013b8002e48900080cf5000dbff390010c0b300ea
:1013c8000080fa00000006004600fa00881f780036
:1013d800e70207008301070080fb2e004016880003
:1013e800100020002016880000242400f1002000ae
:1013f800b9020700100020006016880000242400ad
:10140800f1002000b40207003000200060168800b8
:1014180000242400f1002000af0207007000200023
:101428006016880000242400f1002000aa020700aa
:10143800600020006016880000242400f1002000cd
:10144800a502070040002000601688000024240040
:10145800f1002000a0020700cc22ef0000c8b30072
:101468006067980030cbb3007067980000c8b3007d
:10147800006f980030c1b300106f980000c8b30027
:10148800206f980030c2b300306f980000c8b300d6
:10149800406f980030c3b300506f980000c8b30085
:1014a800606f980000cab300706f980000cbb3005b
:1014b80000779800f0c8b3001077980000cbb3000d
:1014c8002077980020c8b3003077980041032000a7
:1014d80081004700028c28000b000900b2587800f0
:1014e8000040eb0000c798008e0178001304b0009c
:1014f800030009008059eb006000b800008fbe00af
:101508006000b80020079800310798000040eb0001
:10151800004f98006000b8005007980061079800d5
:101528006000b80070079800010f98006000b800cc
:10153800100f9800210f98006000b800500f980015
:10154800610f98006000b800700f980001179800ac
:10155800703f2000b1212300101798002117980030
:101568000000200001f82300300f9800410f980078
:10157800200320000e00400022c0b3008000780045
:10158800d0c0b30002ff0700400320000e00400057
:10159800c2c0b30080007800d0c0b300fcfe0700d2
:1015a800600220000e00400022c0b30080007800d6
:1015b800d0c0b300f6fe0700800220000e004000f5
:1015c80022c0b30080007800d0c0b300f0fe07004e
:1015d80000882300110020003f020700a00220001d
:1015e8000e00400022c0b30080007800d0c0b300d5
:1015f800e7fe070094003700000320000e004000bb
:1016080022c0b30080007800d0c0b300e0fe07001d
:10161800000420000e00400080007800d0c0b30015
:1016280001ff07000e0037000032200001002000f3
:1016380029020700000320000e00400022c0b3006a
:1016480080007800d0c0b300d1fe0700000420005d
:101658000e00400080007800d0c0b300f2fe070002
:101668000ec090000080fb00620060000000e000f7
:10167800edff3200100420000e00400043c9b30003
:1016880042c0b30080007800d0c0b3000bff070051
:101698001ec090000080fb00c800dd002ec0900036
:1016a8000080fb0000804000cf80de0097fd07002f
:1016b800008fbe0018c0b300020020000370240091
:1016c8001e00be008ffd07000000e00001003d0085
:1016d8000044eb000804e00005003200020020008e
:1016e800037824001e00be00e4fc0700008fbe0043
:1016f8001e01be001e00be00c7fd0700700f980047
:10170800011798003ec090000080fb00c800dd0073
:101718004ec090000080fb0000804000cf80de00bb
:101728007afd0700200798003107980018c0b30019
:1017380002002000037024002e009000be009000dc
:1017480070fd07000000e00001003d000044eb00d0
:101758000804e0000700320002002000037824009b
:101768002e009000be009000c4fc070020079800df
:10177800310798002e019000be0190002e009000c5
:10178800be009000a4fd0700500f9800610f98005c
:101798005e099000ee0990007e0890008e1090007f
:1017a800b7fc0700d0fd07005007980061079800b4
:1017b8006011b8005e009000ee00900056fd070032
:1017c8000000e0000b0032001e119000ae119000e6
:1017d8005e009000ee0090008ffd07000001be0043
:1017e8000000200001f8230002fd070050079800c0
:1017f800610798000e4890000040e800004f9800ec
:101808005e019000ee0190007e0090008e0890002e
:101818009bfc070070079800010f98000ec090000d
:101828000080fb00640060000000e00006003a0051
:10183800c00220000e00400022c0b30080007800e3
:10184800d0c0b30052fe07000ec090000080fb001d
:10185800640060000000e00067ff3200e002200042
:101868000e00400022c0b30080007800d0c0b30052
:1018780047fe07000e4890000004e0000a0032000e
:101888000e4890000080fb00cf80de001ffd07009f
:101898000001be007e0090008e089000d5fc070075
:1018a800100f9800210f980002002500337c2400b7
:1018b8001e089000ae08900070fc0700100f9800fa
:1018c800210f98000200200003f823003e08900032
:1018d800ce08900009fd07000000e00005003a006e
:1018e8001e099000ae099000320f9800430f98002f
:1018f8002f003700a2702d0033ca23003e08900045
:10190800ce08900044fd070018c0b3001e099000df
:10191800ae099000fbfc07000000e00001003d005c
:101928000044eb000804e00002003200cc42a800aa
:101938001f003700d2cc2c00c3dc23003e089000e7
:10194800ce08900034fd070018c0b3001e099000af
:10195800ae099000ebfc07000000e00001003d002c
:101968000044eb000804e00002003200cc22a8008a
:101978000f0037000200200003e823003e08900013
:10198800ce08900024fd070018c0b3001e0990007f
:10199800ae099000dbfc07000000e00001003d00fc
:1019a8000044eb000804e00001003200cc02a8006b
:1019b800c402a90000f82400210120004601070004
:1019c800c402a8006000b80070079800010f9800d2
:1019d8000040eb0000c798000040eb00004f980063
:1019e800effe37000000fa0000802000c1832000cd
:1019f8001100980000802000c183200001087800b1
:101a080000802000a00090000110a0002100980094
:101a18000080200020019000e1ff2f00810061007c
:101a280021009800008020008040eb006140980071
:101a380030012000201088000000280030108800a5
:101a48000822ef008620a9009620a8000080fa004e
:101a5800000006000200fa0000802000e04090002c
:101a6800014f78001e4078000080fa000000060050
:101a78000000fa0060408000660040006040880076
:101a88000ac8bf000040e9000ae8b7000ac8bf005a
:101a98000004e00003003a004000200040408800b5
:101aa8000200370010002000404088000080fa0043
:101ab800000006000200fa00000f78000642a800a5
:101ac80070408000200090000000e0000300320019
:101ad80070408000200090001e0878000828ef0061
:101ae8000080fa00000006000800fa00000f7800e5
:101af80021479800220798003307980000802000ab
:101b080020009000610060000000e0000a003a0038
:101b1800ae0190002e4190009e0078008084200045
:101b2800780007003e0190008184200010c0b300b7
:101b38001f000700030037003e0090008000eb0004
:101b4800010878000080fa00000006000800fa008a
:101b5800000f780021479800220798003307980063
:101b68000080200020009000610060000000e0007c
:101b78000a003a00ae0190002e4190009e007800c5
:101b880020842000470007003e01900021842000a7
:101b980010c0b30006000700030037003e009000a5
:101ba8008000eb00010878000080fa0000000600c1
:101bb8000600fa00004f78001107980022079800e5
:101bc8000080200020009000610060000000e0001c
:101bd8002f003a002e009000110020000108780024
:101be80000802000100078009e00900011009800ee
:101bf80000802000100078001e4878000080200037
:101c080010007800ae0090002100980000802000ad
:101c180010007800e60040000080200001087800ed
:101c2800008020009000780020842000808f5000e1
:101c380003003a0000802000c183200001087800da
:101c48000080200020019000d1ff2f00810061005a
:101c58002100980000802000900090000080200063
:101c680010007800808f500004003a0000802000a7
:101c7800a00090000100a0002100980040408000d2
:101c88000000e00005003a008620a80003003700a5
:101c98002e0090008000eb00010878000080fa0018
:101ca800000006000800fa00000f780011079800ed
:101cb80042479800330798003e009000000040001b
:101cc800800078001e007800010878001e00780067
:101cd80010007800800078000100a0001e00780045
:101ce800010878001e007800ce409000214098003e
:101cf8001e0078009e009000210098000080fa00e5
:101d0800000006000800fa00000f7800110798008c
:101d180042479800330798003e00900000004000ba
:101d2800800078001e007800010878001e00780006
:101d3800ce409000214098001e0078009e00900040
:101d4800210098000080fa00000006000000fa0058
:101d580000802000200090006200600000f0a700d2
:101d68000000ea000000ea004f00de0000407800b2
:101d78000080fa00000006000000fa000080200041
:101d8800200090006100600000f0a7000000ea0059
:101d98000000ea004f00de00004078000080fa00f2
:101da800000006000000fa0000102300203a880016
:101db8004827ef004e27ef00720020008007200020
:101dc800a1092000337420008049780081497800f7
:101dd800824978000001eb006004200071052000b2
:101de800237420008049780081497800824978006e
:101df8000080fa00000006000000fa00001023002e
:101e0800203a88004827ef004e27ef007200200094
:101e180080072000a1092000337420008049780041
:101e280081497800824978000001eb0060042000b5
:101e380071052000237420008049780081497800ca
:0c1e4800824978000080fa0000000600cb
:020000040000fa
:101e54001c0800002000000000000000180800001a
:101e64000200000002000000ffff00003c08000028
:101e7400120000000000000000080000180000002c
:101e8400000000004e0800000800000000000000f0
:101e94001a0800000200000000000000000000001a
:020000040000fa
:101ea4000000fa00c422ef00cc22ef00e001200081
:101eb40000168800b0fb2e00401688006820ef0052
:101ec4006a20ef00c622ef00ce22ef00c0002000ff
:0c1ed400601988000080fa000000060081
:020000040000fa
:101ee000f03fb1000180b10006003500ee030900ab
:101ef00000000000403fb1000180b100fbff3d0049
:101f00001000b000203fb000020035000080090042
:081f10000000000000000600c3
:020000040000fa
:101f18000000fa0061058000f0f82f0000806000e2
:101f28000040a000600588006105800080ff2f0048
:101f3800008060000000a000600588000080fa00b2
:101f480000000600000f78009e007800c14088005d
:101f5800ffff37000000fa00c081200080077800ea
:101f680040832000000188000080fa00000006007d
:101f78000000fa00c9ff0700e5ff07009eff070001
:0c1f880098fe07000080fa000000060030
:020000040000fa
:020000040001f9
:0457f000ffff0000b7
:020000040000fa
:020000040001f9
:0457f400fffc0000b6
:020000040000fa
:020000040001f9
:0457f8009fff00000f
:020000040000fa
:020000040001f9
:0457fc007f3f0000eb
:00000001FF
